{
  "_format": "hh-sol-artifact-1",
  "contractName": "VaultRegistry",
  "sourceName": "contracts/VaultRegistry.sol",
  "abi": [
    {
      "inputs": [
        {
          "internalType": "address",
          "name": "verifierAddress",
          "type": "address"
        }
      ],
      "stateMutability": "nonpayable",
      "type": "constructor"
    },
    {
      "inputs": [],
      "name": "AlreadyRegistered",
      "type": "error"
    },
    {
      "inputs": [],
      "name": "EmptyCID",
      "type": "error"
    },
    {
      "inputs": [],
      "name": "ZeroHash",
      "type": "error"
    },
    {
      "anonymous": false,
      "inputs": [
        {
          "indexed": true,
          "internalType": "address",
          "name": "user",
          "type": "address"
        },
        {
          "indexed": true,
          "internalType": "bytes32",
          "name": "fileHash",
          "type": "bytes32"
        },
        {
          "indexed": false,
          "internalType": "string",
          "name": "cid",
          "type": "string"
        }
      ],
      "name": "FileAdded",
      "type": "event"
    },
    {
      "anonymous": false,
      "inputs": [
        {
          "indexed": true,
          "internalType": "address",
          "name": "user",
          "type": "address"
        },
        {
          "indexed": true,
          "internalType": "bytes32",
          "name": "rootO",
          "type": "bytes32"
        },
        {
          "indexed": true,
          "internalType": "bytes32",
          "name": "rootT",
          "type": "bytes32"
        },
        {
          "indexed": false,
          "internalType": "string",
          "name": "cidT",
          "type": "string"
        }
      ],
      "name": "TransformationRegistered",
      "type": "event"
    },
    {
      "inputs": [
        {
          "internalType": "bytes32",
          "name": "fileHash",
          "type": "bytes32"
        },
        {
          "internalType": "string",
          "name": "cid",
          "type": "string"
        }
      ],
      "name": "addFile",
      "outputs": [],
      "stateMutability": "nonpayable",
      "type": "function"
    },
    {
      "inputs": [
        {
          "internalType": "bytes32",
          "name": "parent",
          "type": "bytes32"
        }
      ],
      "name": "childrenOf",
      "outputs": [
        {
          "internalType": "bytes32[]",
          "name": "",
          "type": "bytes32[]"
        }
      ],
      "stateMutability": "view",
      "type": "function"
    },
    {
      "inputs": [
        {
          "internalType": "address",
          "name": "user",
          "type": "address"
        },
        {
          "internalType": "bytes32",
          "name": "fileHash",
          "type": "bytes32"
        }
      ],
      "name": "getFile",
      "outputs": [
        {
          "internalType": "string",
          "name": "",
          "type": "string"
        }
      ],
      "stateMutability": "view",
      "type": "function"
    },
    {
      "inputs": [
        {
          "internalType": "bytes32",
          "name": "child",
          "type": "bytes32"
        }
      ],
      "name": "parentOf",
      "outputs": [
        {
          "internalType": "bytes32",
          "name": "",
          "type": "bytes32"
        }
      ],
      "stateMutability": "view",
      "type": "function"
    },
    {
      "inputs": [
        {
          "internalType": "bytes32",
          "name": "rootO",
          "type": "bytes32"
        },
        {
          "internalType": "bytes32",
          "name": "rootT",
          "type": "bytes32"
        },
        {
          "internalType": "string",
          "name": "cidT",
          "type": "string"
        },
        {
          "internalType": "uint256[2]",
          "name": "a",
          "type": "uint256[2]"
        },
        {
          "internalType": "uint256[2][2]",
          "name": "b",
          "type": "uint256[2][2]"
        },
        {
          "internalType": "uint256[2]",
          "name": "c",
          "type": "uint256[2]"
        },
        {
          "internalType": "uint256[]",
          "name": "input",
          "type": "uint256[]"
        }
      ],
      "name": "registerTransformation",
      "outputs": [],
      "stateMutability": "nonpayable",
      "type": "function"
    },
    {
      "inputs": [
        {
          "internalType": "bytes32",
          "name": "rootO",
          "type": "bytes32"
        },
        {
          "internalType": "string",
          "name": "cidC",
          "type": "string"
        },
        {
          "internalType": "uint256[2]",
          "name": "a",
          "type": "uint256[2]"
        },
        {
          "internalType": "uint256[2][2]",
          "name": "b",
          "type": "uint256[2][2]"
        },
        {
          "internalType": "uint256[2]",
          "name": "c",
          "type": "uint256[2]"
        },
        {
          "internalType": "uint256[]",
          "name": "input",
          "type": "uint256[]"
        }
      ],
      "name": "registerVerifiablyCompressedFile",
      "outputs": [],
      "stateMutability": "nonpayable",
      "type": "function"
    },
    {
      "inputs": [
        {
          "internalType": "address",
          "name": "v",
          "type": "address"
        }
      ],
      "name": "setTransformVerifier",
      "outputs": [],
      "stateMutability": "nonpayable",
      "type": "function"
    },
    {
      "inputs": [],
      "name": "transformVerifier",
      "outputs": [
        {
          "internalType": "contract IVerifier",
          "name": "",
          "type": "address"
        }
      ],
      "stateMutability": "view",
      "type": "function"
    },
    {
      "inputs": [],
      "name": "verifier",
      "outputs": [
        {
          "internalType": "contract Verifier",
          "name": "",
          "type": "address"
        }
      ],
      "stateMutability": "view",
      "type": "function"
    }
  ],
  "bytecode": "0x60806040523480156200001157600080fd5b506040516200208a3803806200208a83398181016040528101906200003791906200012a565b80600160006101000a81548173ffffffffffffffffffffffffffffffffffffffff021916908373ffffffffffffffffffffffffffffffffffffffff16021790555080600260006101000a81548173ffffffffffffffffffffffffffffffffffffffff021916908373ffffffffffffffffffffffffffffffffffffffff160217905550506200015c565b600080fd5b600073ffffffffffffffffffffffffffffffffffffffff82169050919050565b6000620000f282620000c5565b9050919050565b6200010481620000e5565b81146200011057600080fd5b50565b6000815190506200012481620000f9565b92915050565b600060208284031215620001435762000142620000c0565b5b6000620001538482850162000113565b91505092915050565b611f1e806200016c6000396000f3fe608060405234801561001057600080fd5b50600436106100935760003560e01c8063400f7e4511610066578063400f7e451461011e5780636b94fc1e1461013a578063c09a18801461016a578063ddeda13214610188578063f61ac3e4146101b857610093565b806305950b53146100985780630d45dce9146100c85780630f0774cf146100e45780632b7ac3f314610100575b600080fd5b6100b260048036038101906100ad9190610c2a565b6101d4565b6040516100bf9190610cfa565b60405180910390f35b6100e260048036038101906100dd9190611057565b6102b6565b005b6100fe60048036038101906100f991906111bf565b610534565b005b6101086108a7565b6040516101159190611303565b60405180910390f35b6101386004803603810190610133919061131e565b6108cd565b005b610154600480360381019061014f919061134b565b610911565b6040516101619190611436565b60405180910390f35b61017261097c565b60405161017f9190611479565b60405180910390f35b6101a2600480360381019061019d919061134b565b6109a2565b6040516101af91906114a3565b60405180910390f35b6101d260048036038101906101cd91906114be565b6109bf565b005b60606000808473ffffffffffffffffffffffffffffffffffffffff1673ffffffffffffffffffffffffffffffffffffffff168152602001908152602001600020600083815260200190815260200160002080546102309061154d565b80601f016020809104026020016040519081016040528092919081815260200182805461025c9061154d565b80156102a95780601f1061027e576101008083540402835291602001916102a9565b820191906000526020600020905b81548152906001019060200180831161028c57829003601f168201915b5050505050905092915050565b600160009054906101000a900473ffffffffffffffffffffffffffffffffffffffff1673ffffffffffffffffffffffffffffffffffffffff1663c32e370e858585856040518563ffffffff1660e01b815260040161031794939291906117be565b602060405180830381865afa158015610334573d6000803e3d6000fd5b505050506040513d601f19601f820116820180604052508101906103589190611844565b610397576040517f08c379a000000000000000000000000000000000000000000000000000000000815260040161038e906118bd565b60405180910390fd5b600086869050036103dd576040517f08c379a00000000000000000000000000000000000000000000000000000000081526004016103d490611929565b60405180910390fd5b60008060003373ffffffffffffffffffffffffffffffffffffffff1673ffffffffffffffffffffffffffffffffffffffff168152602001908152602001600020600089815260200190815260200160002080546104399061154d565b90501461047b576040517f08c379a000000000000000000000000000000000000000000000000000000000815260040161047290611995565b60405180910390fd5b85856000803373ffffffffffffffffffffffffffffffffffffffff1673ffffffffffffffffffffffffffffffffffffffff16815260200190815260200160002060008a815260200190815260200160002091826104d9929190611b62565b50863373ffffffffffffffffffffffffffffffffffffffff167f339d26964c81f1aceeb0259d975a12ed1a4fd6d31bab573be4881c011a3b06a88888604051610523929190611c6e565b60405180910390a350505050505050565b60008060003373ffffffffffffffffffffffffffffffffffffffff1673ffffffffffffffffffffffffffffffffffffffff16815260200190815260200160002060008b815260200190815260200160002080546105909061154d565b9050036105d2576040517f08c379a00000000000000000000000000000000000000000000000000000000081526004016105c990611cde565b60405180910390fd5b60008060003373ffffffffffffffffffffffffffffffffffffffff1673ffffffffffffffffffffffffffffffffffffffff16815260200190815260200160002060008a8152602001908152602001600020805461062e9061154d565b905014610670576040517f08c379a000000000000000000000000000000000000000000000000000000000815260040161066790611995565b60405180910390fd5b600087879050036106b6576040517f08c379a00000000000000000000000000000000000000000000000000000000081526004016106ad90611929565b60405180910390fd5b600260009054906101000a900473ffffffffffffffffffffffffffffffffffffffff1673ffffffffffffffffffffffffffffffffffffffff1663c32e370e86868686866040518663ffffffff1660e01b8152600401610719959493929190611e2c565b602060405180830381865afa158015610736573d6000803e3d6000fd5b505050506040513d601f19601f8201168201806040525081019061075a9190611844565b610799576040517f08c379a000000000000000000000000000000000000000000000000000000000815260040161079090611ec8565b60405180910390fd5b86866000803373ffffffffffffffffffffffffffffffffffffffff1673ffffffffffffffffffffffffffffffffffffffff16815260200190815260200160002060008b815260200190815260200160002091826107f7929190611b62565b5088600460008a815260200190815260200160002081905550600360008a815260200190815260200160002088908060018154018082558091505060019003906000526020600020016000909190919091505587893373ffffffffffffffffffffffffffffffffffffffff167f9d1f6c8464a71e25a946efe4240ffe72f51b42b337c87fdb7041cd7a7ae537888a8a604051610894929190611c6e565b60405180910390a4505050505050505050565b600160009054906101000a900473ffffffffffffffffffffffffffffffffffffffff1681565b80600260006101000a81548173ffffffffffffffffffffffffffffffffffffffff021916908373ffffffffffffffffffffffffffffffffffffffff16021790555050565b60606003600083815260200190815260200160002080548060200260200160405190810160405280929190818152602001828054801561097057602002820191906000526020600020905b81548152602001906001019080831161095c575b50505050509050919050565b600260009054906101000a900473ffffffffffffffffffffffffffffffffffffffff1681565b600060046000838152602001908152602001600020549050919050565b6000801b83036109fb576040517ff1ae58d500000000000000000000000000000000000000000000000000000000815260040160405180910390fd5b60008282905003610a38576040517f63ee91d000000000000000000000000000000000000000000000000000000000815260040160405180910390fd5b60008060003373ffffffffffffffffffffffffffffffffffffffff1673ffffffffffffffffffffffffffffffffffffffff16815260200190815260200160002060008581526020019081526020016000208054610a949061154d565b905014610acd576040517f3a81d6fc00000000000000000000000000000000000000000000000000000000815260040160405180910390fd5b81816000803373ffffffffffffffffffffffffffffffffffffffff1673ffffffffffffffffffffffffffffffffffffffff16815260200190815260200160002060008681526020019081526020016000209182610b2b929190611b62565b50823373ffffffffffffffffffffffffffffffffffffffff167f339d26964c81f1aceeb0259d975a12ed1a4fd6d31bab573be4881c011a3b06a88484604051610b75929190611c6e565b60405180910390a3505050565b6000604051905090565b600080fd5b600080fd5b600073ffffffffffffffffffffffffffffffffffffffff82169050919050565b6000610bc182610b96565b9050919050565b610bd181610bb6565b8114610bdc57600080fd5b50565b600081359050610bee81610bc8565b92915050565b6000819050919050565b610c0781610bf4565b8114610c1257600080fd5b50565b600081359050610c2481610bfe565b92915050565b60008060408385031215610c4157610c40610b8c565b5b6000610c4f85828601610bdf565b9250506020610c6085828601610c15565b9150509250929050565b600081519050919050565b600082825260208201905092915050565b60005b83811015610ca4578082015181840152602081019050610c89565b60008484015250505050565b6000601f19601f8301169050919050565b6000610ccc82610c6a565b610cd68185610c75565b9350610ce6818560208601610c86565b610cef81610cb0565b840191505092915050565b60006020820190508181036000830152610d148184610cc1565b905092915050565b600080fd5b600080fd5b600080fd5b60008083601f840112610d4157610d40610d1c565b5b8235905067ffffffffffffffff811115610d5e57610d5d610d21565b5b602083019150836001820283011115610d7a57610d79610d26565b5b9250929050565b7f4e487b7100000000000000000000000000000000000000000000000000000000600052604160045260246000fd5b610db982610cb0565b810181811067ffffffffffffffff82111715610dd857610dd7610d81565b5b80604052505050565b6000610deb610b82565b9050610df78282610db0565b919050565b600067ffffffffffffffff821115610e1757610e16610d81565b5b602082029050919050565b6000819050919050565b610e3581610e22565b8114610e4057600080fd5b50565b600081359050610e5281610e2c565b92915050565b6000610e6b610e6684610dfc565b610de1565b90508060208402830185811115610e8557610e84610d26565b5b835b81811015610eae5780610e9a8882610e43565b845260208401935050602081019050610e87565b5050509392505050565b600082601f830112610ecd57610ecc610d1c565b5b6002610eda848285610e58565b91505092915050565b600067ffffffffffffffff821115610efe57610efd610d81565b5b602082029050919050565b6000610f1c610f1784610ee3565b610de1565b90508060408402830185811115610f3657610f35610d26565b5b835b81811015610f5f5780610f4b8882610eb8565b845260208401935050604081019050610f38565b5050509392505050565b600082601f830112610f7e57610f7d610d1c565b5b6002610f8b848285610f09565b91505092915050565b600067ffffffffffffffff821115610faf57610fae610d81565b5b602082029050602081019050919050565b6000610fd3610fce84610f94565b610de1565b90508083825260208201905060208402830185811115610ff657610ff5610d26565b5b835b8181101561101f578061100b8882610e43565b845260208401935050602081019050610ff8565b5050509392505050565b600082601f83011261103e5761103d610d1c565b5b813561104e848260208601610fc0565b91505092915050565b6000806000806000806000610160888a03121561107757611076610b8c565b5b60006110858a828b01610c15565b975050602088013567ffffffffffffffff8111156110a6576110a5610b91565b5b6110b28a828b01610d2b565b965096505060406110c58a828b01610eb8565b94505060806110d68a828b01610f69565b9350506101006110e88a828b01610eb8565b92505061014088013567ffffffffffffffff81111561110a57611109610b91565b5b6111168a828b01611029565b91505092959891949750929550565b60008190508260206002028201111561114157611140610d26565b5b92915050565b60008190508260406002028201111561116357611162610d26565b5b92915050565b60008083601f84011261117f5761117e610d1c565b5b8235905067ffffffffffffffff81111561119c5761119b610d21565b5b6020830191508360208202830111156111b8576111b7610d26565b5b9250929050565b60008060008060008060008060006101808a8c0312156111e2576111e1610b8c565b5b60006111f08c828d01610c15565b99505060206112018c828d01610c15565b98505060408a013567ffffffffffffffff81111561122257611221610b91565b5b61122e8c828d01610d2b565b975097505060606112418c828d01611125565b95505060a06112528c828d01611147565b9450506101206112648c828d01611125565b9350506101608a013567ffffffffffffffff81111561128657611285610b91565b5b6112928c828d01611169565b92509250509295985092959850929598565b6000819050919050565b60006112c96112c46112bf84610b96565b6112a4565b610b96565b9050919050565b60006112db826112ae565b9050919050565b60006112ed826112d0565b9050919050565b6112fd816112e2565b82525050565b600060208201905061131860008301846112f4565b92915050565b60006020828403121561133457611333610b8c565b5b600061134284828501610bdf565b91505092915050565b60006020828403121561136157611360610b8c565b5b600061136f84828501610c15565b91505092915050565b600081519050919050565b600082825260208201905092915050565b6000819050602082019050919050565b6113ad81610bf4565b82525050565b60006113bf83836113a4565b60208301905092915050565b6000602082019050919050565b60006113e382611378565b6113ed8185611383565b93506113f883611394565b8060005b8381101561142957815161141088826113b3565b975061141b836113cb565b9250506001810190506113fc565b5085935050505092915050565b6000602082019050818103600083015261145081846113d8565b905092915050565b6000611463826112d0565b9050919050565b61147381611458565b82525050565b600060208201905061148e600083018461146a565b92915050565b61149d81610bf4565b82525050565b60006020820190506114b86000830184611494565b92915050565b6000806000604084860312156114d7576114d6610b8c565b5b60006114e586828701610c15565b935050602084013567ffffffffffffffff81111561150657611505610b91565b5b61151286828701610d2b565b92509250509250925092565b7f4e487b7100000000000000000000000000000000000000000000000000000000600052602260045260246000fd5b6000600282049050600182168061156557607f821691505b6020821081036115785761157761151e565b5b50919050565b600060029050919050565b600081905092915050565b6000819050919050565b6115a781610e22565b82525050565b60006115b9838361159e565b60208301905092915050565b6000602082019050919050565b6115db8161157e565b6115e58184611589565b92506115f082611594565b8060005b8381101561162157815161160887826115ad565b9650611613836115c5565b9250506001810190506115f4565b505050505050565b600060029050919050565b600081905092915050565b6000819050919050565b600081905092915050565b61165d8161157e565b6116678184611649565b925061167282611594565b8060005b838110156116a357815161168a87826115ad565b9650611695836115c5565b925050600181019050611676565b505050505050565b60006116b78383611654565b60408301905092915050565b6000602082019050919050565b6116d981611629565b6116e38184611634565b92506116ee8261163f565b8060005b8381101561171f57815161170687826116ab565b9650611711836116c3565b9250506001810190506116f2565b505050505050565b600081519050919050565b600082825260208201905092915050565b6000819050602082019050919050565b6000602082019050919050565b600061176b82611727565b6117758185611732565b935061178083611743565b8060005b838110156117b157815161179888826115ad565b97506117a383611753565b925050600181019050611784565b5085935050505092915050565b6000610120820190506117d460008301876115d2565b6117e160408301866116d0565b6117ee60c08301856115d2565b8181036101008301526118018184611760565b905095945050505050565b60008115159050919050565b6118218161180c565b811461182c57600080fd5b50565b60008151905061183e81611818565b92915050565b60006020828403121561185a57611859610b8c565b5b60006118688482850161182f565b91505092915050565b7f496e76616c6964205a4b2070726f6f6600000000000000000000000000000000600082015250565b60006118a7601083610c75565b91506118b282611871565b602082019050919050565b600060208201905081810360008301526118d68161189a565b9050919050565b7f456d707479204349440000000000000000000000000000000000000000000000600082015250565b6000611913600983610c75565b915061191e826118dd565b602082019050919050565b6000602082019050818103600083015261194281611906565b9050919050565b7f416c726561647952656769737465726564000000000000000000000000000000600082015250565b600061197f601183610c75565b915061198a82611949565b602082019050919050565b600060208201905081810360008301526119ae81611972565b9050919050565b600082905092915050565b60008190508160005260206000209050919050565b60006020601f8301049050919050565b600082821b905092915050565b600060088302611a227fffffffffffffffffffffffffffffffffffffffffffffffffffffffffffffffff826119e5565b611a2c86836119e5565b95508019841693508086168417925050509392505050565b6000611a5f611a5a611a5584610e22565b6112a4565b610e22565b9050919050565b6000819050919050565b611a7983611a44565b611a8d611a8582611a66565b8484546119f2565b825550505050565b600090565b611aa2611a95565b611aad818484611a70565b505050565b5b81811015611ad157611ac6600082611a9a565b600181019050611ab3565b5050565b601f821115611b1657611ae7816119c0565b611af0846119d5565b81016020851015611aff578190505b611b13611b0b856119d5565b830182611ab2565b50505b505050565b600082821c905092915050565b6000611b3960001984600802611b1b565b1980831691505092915050565b6000611b528383611b28565b9150826002028217905092915050565b611b6c83836119b5565b67ffffffffffffffff811115611b8557611b84610d81565b5b611b8f825461154d565b611b9a828285611ad5565b6000601f831160018114611bc95760008415611bb7578287013590505b611bc18582611b46565b865550611c29565b601f198416611bd7866119c0565b60005b82811015611bff57848901358255600182019150602085019450602081019050611bda565b86831015611c1c5784890135611c18601f891682611b28565b8355505b6001600288020188555050505b50505050505050565b82818337600083830152505050565b6000611c4d8385610c75565b9350611c5a838584611c32565b611c6383610cb0565b840190509392505050565b60006020820190508181036000830152611c89818486611c41565b90509392505050565b7f506172656e744d697373696e6700000000000000000000000000000000000000600082015250565b6000611cc8600d83610c75565b9150611cd382611c92565b602082019050919050565b60006020820190508181036000830152611cf781611cbb565b9050919050565b82818337505050565b611d1360408383611cfe565b5050565b600060029050919050565b6000819050919050565b611d3860408383611cfe565b5050565b6000611d488383611d2c565b60408301905092915050565b600082905092915050565b6000604082019050919050565b611d7581611d17565b611d7f8184611634565b9250611d8a82611d22565b8060005b83811015611dc357611da08284611d54565b611daa8782611d3c565b9650611db583611d5f565b925050600181019050611d8e565b505050505050565b600080fd5b6000611ddc8385611732565b93507f07ffffffffffffffffffffffffffffffffffffffffffffffffffffffffffffff831115611e0f57611e0e611dcb565b5b602083029250611e20838584611cfe565b82840190509392505050565b600061012082019050611e426000830188611d07565b611e4f6040830187611d6c565b611e5c60c0830186611d07565b818103610100830152611e70818486611dd0565b90509695505050505050565b7f496e76616c69645472616e73666f726d50726f6f660000000000000000000000600082015250565b6000611eb2601583610c75565b9150611ebd82611e7c565b602082019050919050565b60006020820190508181036000830152611ee181611ea5565b905091905056fea2646970667358221220fd92b921bee0f6727eada0728ae2a43d077fceb9594dfcbe12885abedb87abe564736f6c63430008140033",
  "linkReferences": {},
  "deployedLinkReferences": {}
}