{
  "_format": "hh-sol-artifact-1",
  "contractName": "MockVerifier",
  "sourceName": "contracts/MockVerifier.sol",
  "abi": [
    {
      "inputs": [
        {
          "internalType": "uint256[2]",
          "name": "",
          "type": "uint256[2]"
        },
        {
          "internalType": "uint256[2][2]",
          "name": "",
          "type": "uint256[2][2]"
        },
        {
          "internalType": "uint256[2]",
          "name": "",
          "type": "uint256[2]"
        },
        {
          "internalType": "uint256[]",
          "name": "",
          "type": "uint256[]"
        }
      ],
      "name": "verifyProof",
      "outputs": [
        {
          "internalType": "bool",
          "name": "",
          "type": "bool"
        }
      ],
      "stateMutability": "pure",
      "type": "function"
    }
  ],
  "bytecode": "0x608060405234801561001057600080fd5b50610218806100206000396000f3fe608060405234801561001057600080fd5b506004361061002b5760003560e01c8063c32e370e14610030575b600080fd5b61004a60048036038101906100459190610122565b610060565b60405161005791906101c7565b60405180910390f35b60006001905095945050505050565b600080fd5b600080fd5b600080fd5b60008190508260206002028201111561009a57610099610079565b5b92915050565b6000819050826040600202820111156100bc576100bb610079565b5b92915050565b600080fd5b600080fd5b60008083601f8401126100e2576100e16100c2565b5b8235905067ffffffffffffffff8111156100ff576100fe6100c7565b5b60208301915083602082028301111561011b5761011a610079565b5b9250929050565b6000806000806000610120868803121561013f5761013e61006f565b5b600061014d8882890161007e565b955050604061015e888289016100a0565b94505060c061016f8882890161007e565b93505061010086013567ffffffffffffffff81111561019157610190610074565b5b61019d888289016100cc565b92509250509295509295909350565b60008115159050919050565b6101c1816101ac565b82525050565b60006020820190506101dc60008301846101b8565b9291505056fea264697066735822122013bd320b55df25dd385b2de49e35b03dd8ab13b08c68f821be4a0aa775694bba64736f6c63430008140033",
  "linkReferences": {},
  "deployedLinkReferences": {}
}