{"contracts/MockVerifier.sol":{"MockVerifier":{"abi":[{"inputs":[{"internalType":"uint256[2]","name":"","type":"uint256[2]"},{"internalType":"uint256[2][2]","name":"","type":"uint256[2][2]"},{"internalType":"uint256[2]","name":"","type":"uint256[2]"},{"internalType":"uint256[]","name":"","type":"uint256[]"}],"name":"verifyProof","outputs":[{"internalType":"bool","name":"","type":"bool"}],"stateMutability":"pure","type":"function"}],"evm":{"bytecode":{"linkReferences":{},"object":"608060405234801561001057600080fd5b50610218806100206000396000f3fe608060405234801561001057600080fd5b506004361061002b5760003560e01c8063c32e370e14610030575b600080fd5b61004a60048036038101906100459190610122565b610060565b60405161005791906101c7565b60405180910390f35b60006001905095945050505050565b600080fd5b600080fd5b600080fd5b60008190508260206002028201111561009a57610099610079565b5b92915050565b6000819050826040600202820111156100bc576100bb610079565b5b92915050565b600080fd5b600080fd5b60008083601f8401126100e2576100e16100c2565b5b8235905067ffffffffffffffff8111156100ff576100fe6100c7565b5b60208301915083602082028301111561011b5761011a610079565b5b9250929050565b6000806000806000610120868803121561013f5761013e61006f565b5b600061014d8882890161007e565b955050604061015e888289016100a0565b94505060c061016f8882890161007e565b93505061010086013567ffffffffffffffff81111561019157610190610074565b5b61019d888289016100cc565b92509250509295509295909350565b60008115159050919050565b6101c1816101ac565b82525050565b60006020820190506101dc60008301846101b8565b9291505056fea264697066735822122013bd320b55df25dd385b2de49e35b03dd8ab13b08c68f821be4a0aa775694bba64736f6c63430008140033","opcodes":"PUSH1 0x80 PUSH1 0x40 MSTORE CALLVALUE DUP1 ISZERO PUSH2 0x10 JUMPI PUSH1 0x0 DUP1 REVERT JUMPDEST POP PUSH2 0x218 DUP1 PUSH2 0x20 PUSH1 0x0 CODECOPY PUSH1 0x0 RETURN INVALID PUSH1 0x80 PUSH1 0x40 MSTORE CALLVALUE DUP1 ISZERO PUSH2 0x10 JUMPI PUSH1 0x0 DUP1 REVERT JUMPDEST POP PUSH1 0x4 CALLDATASIZE LT PUSH2 0x2B JUMPI PUSH1 0x0 CALLDATALOAD PUSH1 0xE0 SHR DUP1 PUSH4 0xC32E370E EQ PUSH2 0x30 JUMPI JUMPDEST PUSH1 0x0 DUP1 REVERT JUMPDEST PUSH2 0x4A PUSH1 0x4 DUP1 CALLDATASIZE SUB DUP2 ADD SWAP1 PUSH2 0x45 SWAP2 SWAP1 PUSH2 0x122 JUMP JUMPDEST PUSH2 0x60 JUMP JUMPDEST PUSH1 0x40 MLOAD PUSH2 0x57 SWAP2 SWAP1 PUSH2 0x1C7 JUMP JUMPDEST PUSH1 0x40 MLOAD DUP1 SWAP2 SUB SWAP1 RETURN JUMPDEST PUSH1 0x0 PUSH1 0x1 SWAP1 POP SWAP6 SWAP5 POP POP POP POP POP JUMP JUMPDEST PUSH1 0x0 DUP1 REVERT JUMPDEST PUSH1 0x0 DUP1 REVERT JUMPDEST PUSH1 0x0 DUP1 REVERT JUMPDEST PUSH1 0x0 DUP2 SWAP1 POP DUP3 PUSH1 0x20 PUSH1 0x2 MUL DUP3 ADD GT ISZERO PUSH2 0x9A JUMPI PUSH2 0x99 PUSH2 0x79 JUMP JUMPDEST JUMPDEST SWAP3 SWAP2 POP POP JUMP JUMPDEST PUSH1 0x0 DUP2 SWAP1 POP DUP3 PUSH1 0x40 PUSH1 0x2 MUL DUP3 ADD GT ISZERO PUSH2 0xBC JUMPI PUSH2 0xBB PUSH2 0x79 JUMP JUMPDEST JUMPDEST SWAP3 SWAP2 POP POP JUMP JUMPDEST PUSH1 0x0 DUP1 REVERT JUMPDEST PUSH1 0x0 DUP1 REVERT JUMPDEST PUSH1 0x0 DUP1 DUP4 PUSH1 0x1F DUP5 ADD SLT PUSH2 0xE2 JUMPI PUSH2 0xE1 PUSH2 0xC2 JUMP JUMPDEST JUMPDEST DUP3 CALLDATALOAD SWAP1 POP PUSH8 0xFFFFFFFFFFFFFFFF DUP2 GT ISZERO PUSH2 0xFF JUMPI PUSH2 0xFE PUSH2 0xC7 JUMP JUMPDEST JUMPDEST PUSH1 0x20 DUP4 ADD SWAP2 POP DUP4 PUSH1 0x20 DUP3 MUL DUP4 ADD GT ISZERO PUSH2 0x11B JUMPI PUSH2 0x11A PUSH2 0x79 JUMP JUMPDEST JUMPDEST SWAP3 POP SWAP3 SWAP1 POP JUMP JUMPDEST PUSH1 0x0 DUP1 PUSH1 0x0 DUP1 PUSH1 0x0 PUSH2 0x120 DUP7 DUP9 SUB SLT ISZERO PUSH2 0x13F JUMPI PUSH2 0x13E PUSH2 0x6F JUMP JUMPDEST JUMPDEST PUSH1 0x0 PUSH2 0x14D DUP9 DUP3 DUP10 ADD PUSH2 0x7E JUMP JUMPDEST SWAP6 POP POP PUSH1 0x40 PUSH2 0x15E DUP9 DUP3 DUP10 ADD PUSH2 0xA0 JUMP JUMPDEST SWAP5 POP POP PUSH1 0xC0 PUSH2 0x16F DUP9 DUP3 DUP10 ADD PUSH2 0x7E JUMP JUMPDEST SWAP4 POP POP PUSH2 0x100 DUP7 ADD CALLDATALOAD PUSH8 0xFFFFFFFFFFFFFFFF DUP2 GT ISZERO PUSH2 0x191 JUMPI PUSH2 0x190 PUSH2 0x74 JUMP JUMPDEST JUMPDEST PUSH2 0x19D DUP9 DUP3 DUP10 ADD PUSH2 0xCC JUMP JUMPDEST SWAP3 POP SWAP3 POP POP SWAP3 SWAP6 POP SWAP3 SWAP6 SWAP1 SWAP4 POP JUMP JUMPDEST PUSH1 0x0 DUP2 ISZERO ISZERO SWAP1 POP SWAP2 SWAP1 POP JUMP JUMPDEST PUSH2 0x1C1 DUP2 PUSH2 0x1AC JUMP JUMPDEST DUP3 MSTORE POP POP JUMP JUMPDEST PUSH1 0x0 PUSH1 0x20 DUP3 ADD SWAP1 POP PUSH2 0x1DC PUSH1 0x0 DUP4 ADD DUP5 PUSH2 0x1B8 JUMP JUMPDEST SWAP3 SWAP2 POP POP JUMP INVALID LOG2 PUSH5 0x6970667358 0x22 SLT KECCAK256 SGT 0xBD ORIGIN SIGNEXTEND SSTORE 0xDF 0x25 0xDD CODESIZE JUMPDEST 0x2D 0xE4 SWAP15 CALLDATALOAD 0xB0 RETURNDATASIZE 0xD8 0xAB SGT 0xB0 DUP13 PUSH9 0xF821BE4A0AA775694B 0xBA PUSH5 0x736F6C6343 STOP ADDMOD EQ STOP CALLER "},"methodIdentifiers":{"verifyProof(uint256[2],uint256[2][2],uint256[2],uint256[])":"c32e370e"}}}}}